:100000003AC076C253C052C051C050C04FC04EC05B
:100010004DC04CC04BC04AC049C048C047C046C094
:1000200045C044C043C042C041C040C03FC03EC0C4
:100030003DC03CC004030904120348006F006D007A
:1000400065006D006100640065000803490032002E
:10005000630012011001FF000008A0201041000100
:10006000010200010902120001010080FA090400E6
:1000700000000000000011241FBECFEFD4E0DEBF5F
:10008000CDBF11E0A0E0B1E0E4E8F9E002C00590E6
:100090000D92A230B107D9F711E0A2E0B1E001C0A2
:1000A0001D92A234B107E1F714D46AC4A9CF10920B
:1000B000B90087E08093B800089586E690E005C017
:1000C00024E02A95F1F7019731F02091BC0027FF39
:1000D000F7CF80E0089581E0089594EA9093BC0002
:1000E00026E630E006C094E09A95F1F721503040C2
:1000F00059F09091BC0097FFF6CF9091B900987F8E
:10010000983021F0903111F081E008958093BB0088
:1001100084E88093BC0086E690E005C024E02A9540
:10012000F1F7019779F02091BC0027FFF7CF90916C
:10013000B900987F983121F081E0903409F008955A
:1001400080E0089581E0089524EA34E844E92093AA
:10015000BC009091BC0097FFFCCF9091B900987FB4
:10016000983011F0903199F78093BB003093BC0028
:100170009091BC0097FFFCCF9091B900987F90328E
:1001800019F0983509F008954093BC009091BC0097
:1001900094FDFCCFDCCF24EA34E844E92093BC0092
:1001A0009091BC0097FFFCCF9091B900987F983058
:1001B00011F0903199F78093BB003093BC0090917F
:1001C000BC0097FFFCCF9091B900987F903221F04E
:1001D000983511F080E008954093BC009091BC00E8
:1001E00094FDFCCFDBCF84E98093BC0086E605C09C
:1001F00094E09A95F1F7815021F09091BC0094FD24
:10020000F7CF089526E630E006C094E09A95F1F71E
:100210002150304059F09091BC0097FFF6CF809369
:10022000BB0084E88093BC0080E0089581E00895DD
:1002300084EC8093BC0086E690E005C024E02A951B
:10024000F1F7019749F02091BC0027FFF7CF2091EB
:10025000BB0030E0C90108952FEF3FEFC9010895B9
:1002600084E88093BC0086E690E005C024E02A95EF
:10027000F1F7019749F02091BC0027FFF7CF2091BB
:10028000BB0030E0C90108952FEF3FEFC901089589
:100290001F93CF93DF9380912801835087FD09C07E
:1002A00020912501909124019D3209F44DC01092B6
:1002B00028018091000184FF39C0609101016F3FE6
:1002C000A9F1693008F46DC0685060930101809114
:1002D000180198E88927809318011CE068E02091B4
:1002E0002601309127018091020186FF70C0462FC0
:1002F000415050E0CA01865E9E4FF901A9E1B1E08C
:1003000074917D933196A817B907D1F74F5F5F4F6E
:10031000420F531F509327014093260189E191E03A
:10032000E3D01C3009F04DC01093000194E189B175
:100330008C7031F49150D9F7109229011092230159
:10034000DF91CF911F910895883009F0B0CFCCE0B4
:10035000D0E0C21BD109C45DDE4F83EC809318014D
:100360008AE5809300011092020188818076F1F580
:100370009A811092210189818823D9F51092220156
:1003800021E231E082E030932701209326019F8112
:10039000992321F49E81981708F4892F80930101F5
:1003A00086CF109201018091180198E889278093E7
:1003B0001801662309F065C089E191E060E094D0FE
:1003C00014E08FEF8093010110930001AFCFD901AA
:1003D000462F415050E0CA01865E9E4FE9E1F1E0B0
:1003E0007D917193E817F907D9F790CFCE0136D2F6
:1003F000CECF853061F0863081F0883021F18930B0
:1004000031F18A3051F121E231E080E0BCCF9093AC
:10041000290121E231E080E0B6CF8B81813049F1C2
:100420008230F9F0833029F080E090E4909302016B
:10043000AECF992349F584E390E090932701809310
:10044000260184E0F2CF2BE231E081E09CCF909353
:100450002B0121E231E080E096CF21E231E081E022
:1004600092CF84E690E0909327018093260182E169
:10047000DCCF82E590E0909327018093260182E112
:10048000D4CF162F1C5F2BCF913051F0923061F6F4
:100490008AE490E0909327018093260188E0C5CFFD
:1004A00088E390E0909327018093260182E1BDCFFD
:1004B000E9E6F0E0808182608083E89A0895A82FC1
:1004C000B92F80E090E041E050EA60956F5F58F40A
:1004D0002D9138EF82279795879510F084279527DF
:1004E0003F5FC8F3F3CF0895EADF8D939D9308959E
:1004F000CF93CFB7CF93C3954B9BE9F74B9B09C0E5
:100500004B9B07C04B9B05C04B9B03C04B9B01C043
:10051000A1C0DF93C0912501DD27C45DDE4F4B9B59
:1005200002C0DF91EBCF2F930F931F9309B12FEFF1
:1005300003FB20F94F933F9319B14FEF012703FBC2
:1005400021F93BE031C04E7F012F19B1216028C055
:10055000102F4D7F2260000009B129C04B7F24601D
:10056000012F000019B12BC019B1477F28602AC0A4
:100570004F7E09B120612CC04F7D19B120622FC080
:100580004F7B09B1206432C0422709B149934FEF34
:100590000000102713FB20F919B11C70C9F1297F45
:1005A00091F2012703FB21F909B1237F89F2315030
:1005B00058F1102713FB22F919B1277E79F2012790
:1005C00003FB23F92F7C81F209B1102713FB24F9D7
:1005D0002F7971F200C019B1012703FB25F92F73A0
:1005E00059F200C009B1102713FB26F9223040F25E
:1005F00000C019B1012703FB27F9243028F64F77F3
:10060000206819B10000F9CF11E01CBB002717C00A
:100610003B503195C31BD04011E01CBB0881033C0B
:10062000E9F00B34D9F0209123011981110F121335
:10063000EDCF093641F10D3211F0013E39F700934B
:100640002A013F914F911F910F912F91DF91CCB3D0
:10065000C0FD51CFCF91CFBFCF91189520912A01E6
:10066000222379F310912801112311F5343012F16E
:100670003093280120932401109125013BE0311B88
:100680003093250117C00091280101308CF40AE550
:100690003091000134FD10C000930001C8E1D1E0A9
:1006A0000FC02795A8F45150A9F4220F0000F9CFEC
:1006B0004AE503C042ED01C0432FC4E1D0E032E07F
:1006C0001AB11C605B9A1AB90BB120E41CE05F936D
:1006D000012756E00BB9279520F4515021F4220F41
:1006E000F9CF012756E000003B5A0BB9D0F227950D
:1006F00028F4515029F4220F0000F9CF012756E0C9
:1007000027950BB920F4515021F4220FF9CF01277E
:1007100056E0299133230BB921F6037F109129016B
:10072000110FC651D0400BB911F01093230111E005
:100730001CBB08601AB1137F402F437F5F9100C03C
:1007400000C00BB91AB94BB97CCF85B190E18927AC
:1007500085B90895009711F42C9808952C9A08955E
:1007600081E01C9B80E00895009711F42D98089576
:100770002D9A0895CF93DF93EC0186EAAEDC8130A9
:10078000A9F082E33FDD87EA06DD813081F050DDAC
:1007900088834EDD89834CDD8A834ADD8B8348DD87
:1007A0008C835EDD8D83DF91CF9108951CDD8FEF0B
:1007B000DF91CF9108951092050186EA8EDC813099
:1007C000C9F082E31FDD87EAE6DC813091F030DD9D
:1007D000809306012DDD809307012ADD80930801B7
:1007E00027DD8093090124DD80930A0139DD8093A0
:1007F0000B010895F8DC089586EACDDC813041F1E3
:100800008DE200DD88E0FEDCEEDC8CE3C4DC8130D0
:10081000C9F080E0F7DC88E1F5DCE5DC8CE3BBDCEB
:100820008130C9F082E0EEDC80E0ECDCDCDC80EDE5
:10083000B2DC813051F086E1E5DC88E1E3DCD3DC39
:1008400080E00895D0DC82E00895CDDC88E0089552
:10085000CADC81E00895C7DC84E00895FC01818151
:10086000813051F1823011F080E00895109205013D
:1008700086EA33DC813059F182E3C4DC87EA8BDC21
:10088000813091F0D5DC80930601D2DC80930701A2
:10089000CFDC80930801CCDC80930901C9DC809314
:1008A0000A01DEDC80930B0185E091E09093270143
:1008B0008093260183E108959FDF8093050185E001
:1008C00091E0909327018093260181E008958BDCCD
:1008D000EBCF2EE088E190E00FB6F894A8958093D6
:1008E00060000FBE2093600084B1806384B988B13A
:1008F000806388B92C98DBDB2D9A84E020E195B1E8
:10090000922795B9A895AFE2B5E71197F1F700C026
:100910000000EFE2F5E73197F1F700C000008150E9
:1009200071F7C6DD539A2C9A8FEB94EDA1E08150BC
:100930009040A040E1F700C000002C988FEB94EDB0
:10094000A1E081509040A040E1F700C000002C9A47
:100950008FEB94EDA1E081509040A040E1F700C002
:1009600000002C988FEB94EDA1E081509040A040C6
:10097000E1F700C0000053987894A89589DCFDCF7A
:04098000F894FFCF19
:020984005AFF18
:00000001FF
