:1000000064C07EC07DC07CC07BC07AC079C078C02F
:1000100077C076C075C074C073C072C071C070C044
:100020006FC06EC06DC06CC06BC06AC069C068C074
:1000300067C066C0040309040E0354006800690029
:100040006E0067004D000C034C0069006E006B00F1
:100050004D001201100100000008A0201041000115
:10006000010200010902650002010080FA09040092
:10007000000001010000092401000109000101093B
:1000800004010002010300000724010001410006F1
:1000900024020101000624020202000924030103D4
:1000A0000102010009240302040101010009050104
:1000B0000308000A00000525010101090581030864
:1000C000000A000005250101030011241FBECFEF27
:1000D000D4E0DEBFCDBF11E0A0E0B1E0ECE5FAE096
:1000E00002C005900D92A230B107D9F711E0A2E04D
:1000F000B1E001C01D92AD34B107E1F73CD4ACC40E
:100100007FCF1092B90087E08093B800089580E017
:1001100090E007C024E02A95F1F78536910539F083
:1001200001962091BC0027FFF5CF80E0089581E083
:1001300008951F93182F84EA8093BC00E8DF88237A
:10014000C1F48091B900887F883011F0803189F442
:100150001093BB0084E88093BC00D9DF882349F466
:100160009091B900987F983131F081E0903421F47A
:1001700002C081E001C080E01F91089544EA34E8A4
:1001800024E94093BC009091BC0097FFFCCF909174
:10019000B900987F983011F0903199F78093BB00A7
:1001A0003093BC009091BC0097FFFCCF9091B900B8
:1001B000987F903211F0983539F42093BC009091DB
:1001C000BC0094FDFCCFDDCF0895D8DF80E008951A
:1001D00084E98093BC0080E006C094E09A95F1F732
:1001E000853629F08F5F9091BC0094FDF6CF08957D
:1001F0001F93182F8CDF882339F41093BB0084E8F9
:100200008093BC0080E001C081E01F91089584ECE0
:100210008093BC007CDF882321F42091BB0030E078
:1002200002C02FEF3FEFC901089584E88093BC001E
:100230006EDF882321F42091BB0030E002C02FEF55
:100240003FEFC90108951F93162F2091220124FF2B
:1002500007C02091230138E823272093230103C0FE
:100260002AE520932201212FDC01E4E2F1E08D91C7
:10027000819321501216DCF384E291E0612F42D188
:100280001C5F109322011F9108951F93CF93DF935A
:1002900060913301635067FDA6C080913001CCE0CE
:1002A000D0E0C81BD109C95CDE4F80912F0180319D
:1002B00018F4CE0148D395C08D3209F082C0683061
:1002C00009F08FC083EC809317018AE580930001C9
:1002D000109202018881807619F0CE013FD35EC072
:1002E0009A81109220018981882331F41092210192
:1002F00020E231E082E04DC0853019F49093340162
:1003000045C0863069F58B81813011F0823019F457
:10031000CE0139D221C08330F1F4992341F484E332
:1003200090E0909332018093310184E015C09130C8
:1003300041F488E390E090933201809331018EE0A4
:100340000BC0923041F486E490E0909332018093A8
:1003500031018CE001C080E090E4909302011EC066
:10036000883069F0893019F4909336010FC08A30D3
:1003700049F08B3059F48BE48093230107C026E3C6
:1003800031E002C020E231E081E003C020E231E050
:1003900080E0309332012093310109C08F3F39F45E
:1003A000988197FD8E8190E89093020107C09F810C
:1003B000992321F49E81981708F4892F80930101D5
:1003C00010C08091020187FF0CC0CE01BAD28F3FCE
:1003D00021F48EE18093000104C0882311F0109273
:1003E0000101109233018091000184FF5BC0809174
:1003F00001018F3F09F456C0182F893008F018E02A
:10040000811B809301018091170198E889278093CF
:1004100017011123B1F18091020187FF08C088E123
:1004200091E0612F91D2182F8930B0F52AC0209128
:10043000310130913201412F415086FF0EC050E012
:10044000EA01C75EDE4FF901A8E1B1E084918D9326
:100450003196AC17BD07D1F70CC0D90150E0CA01E5
:10046000875E9E4FE8E1F1E06D916193E817F9072F
:10047000D9F74F5F5F4F420F531F509332014093A4
:10048000310188E191E0612F3DD01C5F1C3041F0CB
:100490008FEF8093010104C08FEF809301011EE173
:1004A0001093000184E199B19C7031F48150D9F727
:1004B0001092340110922E01DF91CF911F91089577
:1004C000E9E6F0E0808183608083E89A8BE48093A2
:1004D00023018AE5809322010895A82FB92F80E097
:1004E00090E041E050EA60956F5F58F42D9138EF4D
:1004F00082279795879510F0842795273F5FC8F34B
:10050000F3CF0895EADF8D939D930895CF93CFB7EE
:10051000CF93C3954B9BE9F74B9B09C04B9B07C0FF
:100520004B9B05C04B9B03C04B9B01C0A6C0DF93F8
:10053000C0913001DD27C95CDE4F4B9B02C0DF91CB
:10054000EBCF2F930F931F9309B12FEF03FB20F9EC
:100550004F933F9319B14FEF012703FB21F93BE084
:1005600031C04E7F012F19B1216028C0102F4D7F5F
:100570002260000009B129C04B7F2460012F0000D8
:1005800019B12BC019B1477F28602AC04F7E09B12D
:1005900020612CC04F7D19B120622FC04F7B09B163
:1005A000206432C0422709B149934FEF0000102761
:1005B00013FB20F919B11C70C9F1297F91F20127B1
:1005C00003FB21F909B1237F89F2315058F110273B
:1005D00013FB22F919B1277E79F2012703FB23F9D6
:1005E0002F7C81F209B1102713FB24F92F7971F2C6
:1005F00000C019B1012703FB25F92F7359F200C080
:1006000009B1102713FB26F9223040F200C019B1BE
:10061000012703FB27F9243028F64F77206819B10A
:100620000000F9CF11E01CBB00271CC03B503195E6
:10063000C31BD04011E01CBB0881033C11F10B34FB
:1006400001F120912E011981110F1213EDCF4A8172
:10065000441F093659F10D3211F0013E29F74F7050
:1006600009F0042F009335013F914F911F910F9195
:100670002F91DF91CCB3C0FD4CCFCF91CFBFCF91A5
:10068000189520913501222379F31091330111231C
:1006900069F534306AF13093330120932F011091C2
:1006A00030013BE0311B3093300122C00091330117
:1006B0000130E4F40AE54F7049F43091000134FD53
:1006C00019C000930001C7E1D1E018C030912201A8
:1006D00034FD10C000932201C3E2D1E00FC0279582
:1006E000A8F45150A9F4220F0000F9CF4AE503C045
:1006F00042ED01C0432FC4E1D0E032E01AB11C60EA
:100700005B9A1AB90BB120E41CE05F93012756E015
:100710000BB9279520F4515021F4220FF9CF01276E
:1007200056E000003B5A0BB9D0F2279528F45150FF
:1007300029F4220F0000F9CF012756E027950BB9C5
:1007400020F4515021F4220FF9CF012756E02991CE
:1007500033230BB921F6037F10913401110FC651D9
:10076000D0400BB911F010932E0111E01CBB0860B2
:100770001AB1137F402F437F5F9100C000C00BB9B7
:100780001AB94BB971CFFC018381813041F482E504
:1007900090E0909332018093310182E1089584E6E4
:1007A00090E0909332018093310185E6089585B100
:1007B00090E1892785B90895009711F02C9A089542
:1007C0002C98089581E01C9B80E00895009711F01B
:1007D0002D9A08952D980895DF92EF92FF920F932E
:1007E0001F93CF93DF93109206011092070180911F
:1007F0000F018A3D11F085E60EC080911001009135
:100800001101D0901201813009F044C0E090130131
:10081000E7FE04C086E6809307018BC08E2D880F0B
:1008200088DC813021F487E68093070131C010E035
:100830000D5E1E4FC4E1D1E002C08991D9DCC01722
:10084000D107D9F7DD2021F18E2D880F8160BDDC25
:100850008130B1F088E0E82E81E0F82EC0E0D0E0F1
:100860000D2D10E00150104010C0C017D10711F03D
:10087000CEDC01C0DADC21962FEF8F3F920711F416
:1008800088E6C9CFF70181937F01CD1570F351C080
:100890009FDC4FC0843041F5E090130100911401BA
:1008A000E7FCB8CF07FDB6CF0E1508F4B3CFDD24B3
:1008B000C0E0D0E010E00E1911090EC0FD2CFE0CB6
:1008C0008F2D880F36DC882329F4FE01EA5FFE4F66
:1008D000F38221967DDCD3948D2D90E080179107D3
:1008E0006CF3C093080125C0853029F48091130171
:1008F00090E06CDF1EC0863049F46ADC87EB9BE039
:100900000197F1F700C00000FCDB13C0843639F416
:1009100083E18093080186E3809309010AC08B3646
:1009200041F445DF80E090E065E588D081E0809388
:100930001601DF91CF911F910F91FF90EF90DF9003
:10094000089581E008950895FC01108211821282B9
:10095000138214821582168287E00895FC0180813B
:10096000982F9076903229F487FD03C081E0809320
:1009700005018FEF08951F932EE088E190E00FB6F8
:10098000F894A895809360000FBE2093600084B116
:10099000806384B988B1806388B980E090E00CDF1F
:1009A000B0DB81E090E012DF14E001DFA8958FE278
:1009B00095E70197F1F700C00000AFE2B5E71197A6
:1009C000F1F700C00000115081F710920501539A11
:1009D00081E090E0F1DE8FEB94EDA1E0815090405A
:1009E000A040E1F700C0000080E090E0E5DE8FEB82
:1009F00094EDA1E081509040A040E1F700C00000DC
:100A000081E090E0D9DE8FEB94EDA1E08150904041
:100A1000A040E1F700C0000080E090E0CDDE8FEB69
:100A200094EDA1E081509040A040E1F700C00000AB
:100A3000539846DD7894A89528DCFDCF262FF999A8
:100A4000FECF1FBA92BD81BD20BD0FB6F894FA9AB1
:0C0A5000F99A0FBE01960895F894FFCFAC
:020A5C005AFF3F
:00000001FF
