:100000004DC0D0C266C065C064C063C062C061C07C
:1000100060C05FC05EC05DC05CC05BC05AC059C0FC
:1000200058C057C056C055C054C053C052C051C02C
:1000300050C04FC0040309040E0354006800690057
:100040006E0067004D000C034C0069006E006B00F1
:100050004D001201100100000008A0201041000115
:10006000010200010902220001010080FA090400D6
:100070000001030000000921010100012221000705
:100080000581030800010600FF0901A101150026F2
:10009000FF00750895010900B20201C011241FBEBE
:1000A000CFEFD4E0DEBFCDBF11E0A0E0B1E0E6E7E6
:1000B000FBE002C005900D92A230B107D9F711E024
:1000C000A2E0B1E001C01D92A335B107E1F7DED493
:1000D00050C596CF1092B90087E08093B80008957C
:1000E00082E197E205C024E02A95F1F7019731F00B
:1000F0002091BC0027FFF7CF80E0089581E00895AC
:1001000094EA9093BC0022E137E206C094E09A950D
:10011000F1F72150304059F09091BC0097FFF6CF95
:100120009091B900987F983021F0903111F081E0E2
:1001300008958093BB0084E88093BC0082E197E23D
:1001400005C024E02A95F1F7019779F02091BC00D1
:1001500027FFF7CF9091B900987F983121F081E087
:10016000903409F0089580E0089581E0089524EA2C
:1001700034E844E92093BC009091BC0097FFFCCF89
:100180009091B900987F983011F0903199F7809351
:10019000BB003093BC009091BC0097FFFCCF9091C6
:1001A000B900987F903219F0983509F0089540937E
:1001B000BC009091BC0094FDFCCFDCCF24EA34E875
:1001C00044E92093BC009091BC0097FFFCCF909134
:1001D000B900987F983011F0903199F78093BB0067
:1001E0003093BC009091BC0097FFFCCF9091B90078
:1001F000987F903221F0983511F080E00895409377
:10020000BC009091BC0094FDFCCFDBCF84E98093CF
:10021000BC008091BC0084FF07C084E08A95F1F7A0
:100220008091BC0084FDF9CF089522E137E206C039
:1002300094E09A95F1F72150304059F09091BC002C
:1002400097FFF6CF8093BB0084E88093BC0080E0EA
:10025000089581E0089584EC8093BC0082E197E2E8
:1002600005C024E02A95F1F7019749F02091BC00E0
:1002700027FFF7CF2091BB0030E0C90108952FEF91
:100280003FEFC901089584E88093BC0082E197E2C2
:1002900005C024E02A95F1F7019749F02091BC00B0
:1002A00027FFF7CF2091BB0030E0C90108952FEF61
:1002B0003FEFC90108951F93162F2091280124FFB5
:1002C00019C02091290138E8232720932901212FE3
:1002D000A82FB92FEAE2F1E08D91819321501216F7
:1002E000DCF38AE291E0612F59D11C5F1093280161
:1002F0001F9108952AE520932801E9CF1F93CF93FA
:10030000DF9380913901835087FD09C02091360128
:10031000909135019D3209F44DC0109239018091C0
:10032000000184FF39C0609101016F3FA9F169307C
:1003300008F46DC068506093010180911D0198E838
:10034000892780931D011CE068E0209137013091DE
:1003500038018091020186FF70C0462F415050E065
:10036000CA01815E9E4FF901AEE1B1E074917D93C7
:100370003196A817B907D1F74F5F5F4F420F531F50
:1003800050933801409337018EE191E007D11C3042
:1003900009F04DC01093000194E189B18C7031F4E3
:1003A0009150D9F710923A0110923401DF91CF9118
:1003B0001F910895883009F0B0CFCCE0D0E0C21B87
:1003C000D109C35CDE4F83EC80931D018AE58093E5
:1003D00000011092020188818076F1F59A811092D5
:1003E000260189818823D9F51092270126E231E080
:1003F00082E030933801209337019F81992321F4C3
:100400009E81981708F4892F8093010186CF10925E
:10041000010180911D0198E8892780931D016623C1
:1004200009F082C08EE191E060E0B8D014E08FEF77
:100430008093010110930001AFCFD901462F4150A5
:1004400050E0CA01815E9E4FEEE1F1E07D91719333
:10045000E817F907D9F790CFCE0103D3CECF853077
:1004600071F0863091F0883001F1893011F18A30D5
:1004700071F18B3081F126E231E080E0BACF9093C8
:100480003A0126E231E080E0B4CF8B818130B9F0CF
:10049000823091F1833031F18132F1F18232A1F178
:1004A00080E090E490930201A8CF2CE331E081E05A
:1004B000A0CF90933C0126E231E080E09ACF82E524
:1004C00090E0909338018093370182E1EACF26E2F1
:1004D00031E081E08ECF8BE48093290126E231E088
:1004E00080E087CF992319F584E390E09093380159
:1004F0008093370184E0D5CF84E690E09093380173
:100500008093370182E2CDCF86E890E09093380166
:100510008093370181E2C5CF86E790E09093380160
:100520008093370189E0BDCF162F1C5F0ECF91302D
:1005300059F0923009F0B4CF86E490E090933801FE
:10054000809337018CE0ADCF88E390E09093380141
:10055000809337018EE0A5CFE9E6F0E080818260EC
:100560008083E89A8BE4809329018AE580932801AF
:100570000895A82FB92F80E090E041E050EA6095FF
:100580006F5F58F42D9138EF82279795879510F07B
:10059000842795273F5FC8F3F3CF0895EADF8D9353
:1005A0009D930895CF93CFB7CF93C3954B9BE9F716
:1005B0004B9B09C04B9B07C04B9B05C04B9B03C08B
:1005C0004B9B01C0A3C0DF93C0913601DD27C35C04
:1005D000DE4F4B9B02C0DF91EBCF2F930F931F9306
:1005E00009B12FEF03FB20F94F933F9319B14FEF60
:1005F000012703FB21F93BE031C04E7F012F19B1E8
:10060000216028C0102F4D7F2260000009B129C051
:100610004B7F2460012F000019B12BC019B1477F17
:1006200028602AC04F7E09B120612CC04F7D19B1CE
:1006300020622FC04F7B09B1206432C0422709B12C
:1006400049934FEF0000102713FB20F919B11C70DC
:10065000C9F1297F91F2012703FB21F909B1237F19
:1006600089F2315058F1102713FB22F919B1277E76
:1006700079F2012703FB23F92F7C81F209B11027BE
:1006800013FB24F92F7971F200C019B1012703FB84
:1006900025F92F7359F200C009B1102713FB26F971
:1006A000223040F200C019B1012703FB27F92430A2
:1006B00028F64F77206819B10000F9CF11E01CBB74
:1006C000002719C03B503195C31BD04011E01CBB23
:1006D0000881033CF9F00B34E9F0209134011981D1
:1006E000110F1213EDCF4A81441F093641F10D322B
:1006F00011F0013E29F700933B013F914F911F916B
:100700000F912F91DF91CCB3C0FD4FCFCF91CFBFD1
:10071000CF91189520913B01222379F31091390153
:10072000112369F534306AF1309339012093350192
:10073000109136013BE0311B3093360122C000910D
:1007400039010130E4F40AE54F7049F430910001B9
:1007500034FD19C000930001CDE1D1E018C0309103
:10076000280134FD10C000932801C9E2D1E00FC078
:100770002795A8F45150A9F4220F0000F9CF4AE5BB
:1007800003C042ED01C0432FC4E1D0E032E01AB112
:100790001C605B9A1AB90BB120E41CE05F9301273F
:1007A00056E00BB9279520F4515021F4220FF9CFD0
:1007B000012756E000003B5A0BB9D0F2279528F4E8
:1007C000515029F4220F0000F9CF012756E0279558
:1007D0000BB920F4515021F4220FF9CF012756E034
:1007E000299133230BB921F6037F10913A01110FA0
:1007F000C651D0400BB911F01093340111E01CBB6D
:1008000008601AB1137F402F437F5F9100C000C082
:100810000BB91AB94BB971CF85B190E1892785B968
:100820000895009711F42C9808952C9A089581E06A
:100830001C9B80E00895009711F42D9808952D9A3F
:100840000895AF92BF92CF92DF92EF92FF920F93F3
:100850001F93DF93CF930F92CDB7DEB7E82EC62E4E
:10086000142FF52ED22E880F798381DC7981DD203B
:1008700059F04C2D572F5A01F50181915F01D5DCBC
:100880008A2D8C198D15C0F3002331F18E2D880F20
:10089000816094DC8130F1F0C02EDD240894C10821
:1008A000D108E12EAA24BB240DC0D5DCFFEF8F3F79
:1008B0009F0781F0F70181937F010894A11CB11C6F
:1008C000A01650F4AC14BD0481F7DDDCFFEF8F3FC0
:1008D0009F0781F780E002C099DC81E00F90CF9103
:1008E000DF911F910F91FF90EF90DF90CF90BF901D
:1008F000AF90089586EA3BDC8DE297DC88E095DCDA
:1009000085DC8CE334DC80E090DC88E18EDC7EDC0E
:100910008CE32DDC82E089DC80E087DC77DC80ED15
:1009200026DC86E182DC88E180DC70DC089586EAE2
:100930001EDC82E37ADC87EA41DC813059F18BDC12
:100940002FEF8F3F920731F18093050184DC2FEF69
:100950008F3F9207F9F0809306017DDC2FEF8F3FE8
:100960009207C1F08093070176DC2FEF8F3F92074B
:1009700089F0809308016FDC2FEF8F3F920751F0D1
:100980008093090180DC2FEF8F3F920719F080934D
:100990000A013CDC86EAEBDB83E047DC87EA0EDC1D
:1009A000813059F158DC2FEF8F3F920731F180935E
:1009B0000B0151DC2FEF8F3F9207F9F080930C0170
:1009C0004ADC2FEF8F3F9207C1F080930D0143DC8B
:1009D0002FEF8F3F920789F080930E013CDC2FEFC1
:1009E0008F3F920751F080930F014DDC2FEF8F3F27
:1009F000920719F08093100109DC86EAB8DB8DE1DB
:100A000014DC87EADBDB813059F125DC2FEF8F3FE7
:100A1000920731F1809311011EDC2FEF8F3F920777
:100A2000F9F08093120117DC2FEF8F3F9207C1F08E
:100A30008093130110DC2FEF8F3F920789F0809392
:100A4000140109DC2FEF8F3F920751F080931501BD
:100A50001ADC2FEF8F3F920719F080931601D6DB37
:100A60000895FC0180818076803411F080E0089543
:100A700081818F3611F080E0089559DF85E091E0A3
:100A8000909338018093370188E108952EE088E142
:100A900090E00FB6F894A895809360000FBE209365
:100AA000600084B1806384B988B1806388B92C9870
:100AB00011DB2D9A84E020E195B1922795B9A89594
:100AC000AFE2B5E71197F1F700C00000EFE2F5E7FC
:100AD0003197F1F700C00000815071F73DDD539A66
:100AE0002C9A8FEB94EDA1E081509040A040E1F76B
:100AF00000C000002C988FEB94EDA1E08150904055
:100B0000A040E1F700C000002C9A8FEB94EDA1E02B
:100B100081509040A040E1F700C000002C988FEB7E
:100B200094EDA1E081509040A040E1F700C00000AA
:100B300086EA1DDB8DE279DB88E077DB67DB8CE31F
:100B400016DB80E072DB88E170DB60DB8CE30FDBBF
:100B500082E06BDB80E069DB59DB80ED08DB86E15E
:100B600064DB88E162DB52DB53987894A895C6DB9E
:060B7000FDCFF894FFCF59
:020B76005AFF24
:00000001FF
