:1000000053C014C36CC06BC06AC069C068C067C00D
:1000100066C065C064C063C062C00DC760C05FC019
:100020005EC05DC05CC05BC05AC059C058C057C0FC
:1000300056C055C0040309040E035400680069004B
:100040006E0067004D000C034C0069006E006B00F1
:100050004D001201100100000008A0201041000115
:10006000010200010902220001010080FA090400D6
:100070000001030000000921010100012221000705
:100080000581030800640600FF0901A1011500268F
:10009000FF007508850195100900B20201850295DF
:1000A000830900B20201C00011241FBECFEFD4E0CB
:1000B000DEBFCDBF11E0A0E0B1E0E8E0F0E102C0BA
:1000C00005900D92A230B107D9F711E0A2E0B1E09E
:1000D00001C01D92AA36B107E1F7D8D693C790CFD9
:1000E0001092B90087E08093B800089586E690E00A
:1000F00005C024E02A95F1F7019731F02091BC006A
:1001000027FFF7CF80E0089581E0089594EA909367
:10011000BC0026E630E006C094E09A95F1F7215045
:10012000304059F09091BC0097FFF6CF9091B90004
:10013000987F983021F0903111F081E008958093FC
:10014000BB0084E88093BC0086E690E005C024E014
:100150002A95F1F7019779F02091BC0027FFF7CF9E
:100160009091B900987F983121F081E0903409F0A6
:10017000089580E0089581E0089524EA34E844E990
:100180002093BC009091BC0097FFFCCF9091B900E8
:10019000987F983011F0903199F78093BB0030939D
:1001A000BC009091BC0097FFFCCF9091B900987F64
:1001B000903219F0983509F008954093BC00909161
:1001C000BC0094FDFCCFDCCF94EA9093BC0026E603
:1001D00030E006C094E09A95F1F72150304059F094
:1001E0009091BC0097FFF6CF9091B900987F98301E
:1001F00021F0903111F081E008958093BB0084E8F4
:100200008093BC0086E690E005C024E02A95F1F7D3
:10021000019779F02091BC0027FFF7CF9091B900AA
:10022000987F983121F081E0903409F0089580E0C2
:10023000089581E0089584E98093BC0086E605C0B6
:1002400094E09A95F1F7815021F09091BC0094FDD3
:10025000F7CF08958093BB0084E88093BC0086E6C6
:1002600090E005C024E02A95F1F7019769F020910C
:10027000BC0027FFF7CF9091B900987F81E09832BA
:1002800009F0089580E0089581E0089584EC80935A
:10029000BC0086E690E005C024E02A95F1F70197BE
:1002A00049F02091BC0027FFF7CF2091BB0030E040
:1002B000C90108952FEF3FEFC901089584E88093A5
:1002C000BC0086E690E005C024E02A95F1F701978E
:1002D00049F02091BC0027FFF7CF2091BB0030E010
:1002E000C90108952FEF3FEFC90108951F93162FFD
:1002F0002091360124FF19C02091370138E82327C7
:1003000020933701212FA82FB92FE8E3F1E08D9139
:10031000819321501216DCF388E391E0612F82D1A2
:100320001C5F109336011F9108952AE52093360132
:10033000E9CF1F93CF93DF9360914701635067FD2F
:1003400013C080914401CCE0D0E0C81BD109C55B4B
:10035000DE4F809143018D3209F462C08091020129
:1003600087FD86C0109247018091000184FF4AC03A
:10037000609101016F3F09F445C0693070F1685028
:100380006093010180912B0198E8892780932B01CC
:1003900068E08091020187FD91C040914501509134
:1003A000460186FF70C0862F8150C82FD0E09E0185
:1003B000235D3E4FFA01ACE2B1E084918D9331961A
:1003C000A217B307D1F72196C40FD51FD0934601CA
:1003D000C0934501162F1C5F0BC010920101809144
:1003E0002B0198E8892780932B01662391F614E06E
:1003F0008CE291E017D11C3019F08FEF809301014E
:100400001093000194E189B18C7031F49150D9F7C7
:100410001092480110924201DF91CF911F910895EF
:10042000683009F09FCF83EC80932B018AE580939D
:1004300000011092020188818076A9F59A811092BC
:1004400034018981882309F045C01092350124E3E5
:1004500031E082E030934601209345019F8199234A
:1004600021F49E81981708F4892F809301017ACF97
:10047000CE01BCD38F3F09F43FC0882309F472CF6B
:10048000109201016FCFDA01862F8150C82FD0E082
:100490009E01235D3E4FECE2F1E08D918193E217E6
:1004A000F307D9F790CFCE01F8D38F3FB9F69881F3
:1004B00097FD3DC090E890930201D7CF8CE291E088
:1004C000CED3682F893008F480C08FEF809301016C
:1004D0001EE196CF8530A1F08630C1F0883049F119
:1004E000893059F18A3009F44FC08B3009F445C086
:1004F00024E331E080E0AECF8EE18093000132CF83
:100500009093480124E331E080E0A4CF8B818130D7
:1005100061F1823011F18330B1F08132C9F1823260
:1005200009F44BC080E090E49093020197CF8E8154
:10053000C1CF2AE431E081E08DCF90934A0124E3DA
:1005400031E080E087CF992359F584E390E09093E0
:1005500046018093450184E0E6CF84E690E09093E5
:1005600046018093450182E2DECF82E590E09093E0
:1005700046018093450182E1D6CF8BE48093370119
:1005800024E331E080E066CF24E331E081E062CF14
:1005900086E790E0909346018093450189E0C3CFC0
:1005A0009130B1F0923009F0BDCF86E490E09093A5
:1005B0004601809345018CE0B6CF86E890E09093A9
:1005C00046018093450181E2AECF182F1C5F10CF0A
:1005D00088E390E090934601809345018EE0A3CF9D
:1005E000E9E6F0E0808182608083E89A8BE4809382
:1005F00037018AE5809336010895A82FB92F80E04E
:1006000090E041E050EA60956F5F58F42D9138EF2B
:1006100082279795879510F0842795273F5FC8F329
:10062000F3CF0895EADF8D939D930895CF93CFB7CD
:10063000CF93C3954B9BE9F74B9B09C04B9B07C0DE
:100640004B9B05C04B9B03C04B9B01C0A3C0DF93DA
:10065000C0914401DD27C55BDE4F4B9B02C0DF919B
:10066000EBCF2F930F931F9309B12FEF03FB20F9CB
:100670004F933F9319B14FEF012703FB21F93BE063
:1006800031C04E7F012F19B1216028C0102F4D7F3E
:100690002260000009B129C04B7F2460012F0000B7
:1006A00019B12BC019B1477F28602AC04F7E09B10C
:1006B00020612CC04F7D19B120622FC04F7B09B142
:1006C000206432C0422709B149934FEF0000102740
:1006D00013FB20F919B11C70C9F1297F91F2012790
:1006E00003FB21F909B1237F89F2315058F110271A
:1006F00013FB22F919B1277E79F2012703FB23F9B5
:100700002F7C81F209B1102713FB24F92F7971F2A4
:1007100000C019B1012703FB25F92F7359F200C05E
:1007200009B1102713FB26F9223040F200C019B19D
:10073000012703FB27F9243028F64F77206819B1E9
:100740000000F9CF11E01CBB002719C03B503195C8
:10075000C31BD04011E01CBB0881033CF9F00B34F3
:10076000E9F0209142011981110F1213EDCF4A8156
:10077000441F093641F10D3211F0013E29F7009373
:1007800049013F914F911F910F912F91DF91CCB370
:10079000C0FD4FCFCF91CFBFCF9118952091490188
:1007A000222379F310914701112369F534306AF15E
:1007B0003093470120934301109144013BE0311BEA
:1007C0003093440122C0009147010130E4F40AE56E
:1007D0004F7049F43091000134FD19C000930001BD
:1007E000CBE2D1E018C03091360134FD10C0009347
:1007F0003601C7E3D1E00FC02795A8F45150A9F402
:10080000220F0000F9CF4AE503C042ED01C0432F9B
:10081000C4E1D0E032E01AB11C605B9A1AB90BB1A6
:1008200020E41CE05F93012756E00BB9279520F4E4
:10083000515021F4220FF9CF012756E000003B5A16
:100840000BB9D0F2279528F4515029F4220F00005B
:10085000F9CF012756E027950BB920F4515021F428
:10086000220FF9CF012756E0299133230BB921F646
:10087000037F10914801110FC651D0400BB911F000
:100880001093420111E01CBB08601AB1137F402F86
:10089000437F5F9100C000C00BB91AB94BB971CF4B
:1008A00085B190E1892785B90895009711F42C98B6
:1008B00008952C9A089581E01C9B80E0089500978C
:1008C00011F42D9808952D9A0895DF92EF92FF92DA
:1008D0000F931F93CF93DF932C9A809107018093FE
:1008E0000A0110920B0180911B018A3D61F085E69F
:1008F00080930B012C98DF91CF911F910F91FF9066
:10090000EF90DF90089580911C0100911D01D0901F
:100910001E01813009F455C0823079F1833009F429
:10092000A0C0843009F4C0C0853009F4E8C0863026
:1009300009F48EC0853609F4E8C0863609F400C192
:10094000873609F403C1883609F424C1893609F4CD
:1009500032C18A3609F43BC1843609F425C18B368D
:1009600049F685B190E1892785B980E090E065E599
:100970003BD381E080932A01BDCF80911F01F0908D
:10098000200187FD22C0880FC1DB813009F4D3C06C
:10099000C02FD0E021971C161D0674F480E090E073
:1009A00000E0805E9E4FFC01808154DC0F5F802F51
:1009B00090E08C179D07ACF3FF2009F09BCF3BDC48
:1009C00099CFE0901F01E7FE04C086E680930B01FB
:1009D00091CF8E2D880F9ADB813009F4ACC0C02FE7
:1009E000D0E021971C161D0674F420E030E000E0F2
:1009F000205E3E4FF90180812DDC0F5F202F30E01B
:100A00002C173D07ACF3DD20D1F28E2D880F8160CD
:100A1000DBDB813009F4B9C0ED2CFF240894E10838
:100A2000F1080CE011E0C0E0D0E00DC02FDCFFEFDA
:100A30008F3F9F0709F4A9C0F80181938F01219688
:100A4000CD1508F0BCCFCE15DF0581F737DCEFCF31
:100A5000F2DB87EB9BE00197F1F700C0000040DB81
:100A600049CF80911F01DD2009F4AFCF2C9A880F68
:100A70008160AADB813009F456C0ED2CFF24089474
:100A8000E108F1080CE011E0C0E0D0E008C0FEDBB6
:100A9000F80181938F012196CD1508F047C0CE153E
:100AA000DF05A9F70BDCF4CFF0901F0100912001C6
:100AB000F7FC8BCF07FD89CF0F1508F486CF10E028
:100AC0000F191109101611060CF08DC0EE24C0E0AC
:100AD000D0E0DE2CDF0C8D2D880F18DB882329F465
:100AE000FE01E65FFE4FD3822196A5DBE3948E2DB7
:100AF00090E0801791076CF3C0930C01FBCE8091BE
:100B00001F018823B1F02D9AF5CE80911F01882313
:100B100009F4F0CE2C9ADF91CF911F910F91FF90A5
:100B2000EF90DF90089588E680930B012C9883DB8B
:100B3000E1CE2D98DFCE87E680930B017CDBDACE09
:100B400081E01C9B80E080930C01D4CEA1E6B1E053
:100B5000EFE1F1E087E001900D928150E1F78091A3
:100B6000650180936801109269010091660100237C
:100B700009F4C0CE80E0CADA813009F420CF86E6DD
:100B800069DB802F67DB57DBB5CE88E680930B01EE
:100B900052DBB0CEACE0B1E0E1E6F1E087E00190FD
:100BA0000D928150E1F7A6CE83E180930C0186E39C
:100BB00080930D019FCE85B190E1892785B981E6AB
:100BC00091E061E070E047E050E005D293CE85B15E
:100BD00090E1892785B981E691E061E070E047E026
:100BE00050E0E9D187CEC0E0D0E086CFFF920F93EE
:100BF0001F93482F792F10910801112321F1062FFF
:100C00001617F8F0F09009012F2D30E0265E3E4FC8
:100C1000C901642F402F50E0C5D1F00EF0920901B8
:100C2000101B10930801112399F081E0112321F486
:100C30001F910F91FF90089580E01F910F91FF90F9
:100C40000895012FDFCF81E01F910F91FF9008954C
:100C50003CDE1091080181E0112351F3EDCFFF92AA
:100C60000F931F9300910801162F061708F4102FF9
:100C7000F09009012F2D30E0265F3E4FB901412F42
:100C800050E090D1F10EF0920901011B0093080190
:100C9000812F1F910F91FF900895FC018081807634
:100CA000803211F080E0089592818181813041F09D
:100CB0008930C1F7892F8150823030F080E008956B
:100CC000892F8150823070F790930701913039F06D
:100CD00083E880930801109209018FEF089580E165
:100CE000F8CF880F13DA813039F08FE6B3DAA3DA60
:100CF00020E030E0C90108959EDA21E030E0C9012A
:100D00000895FF920F931F93162F042FF22E880F32
:100D1000FDD9813081F08EE69DDA812F9BDA802F1C
:100D200099DA8F2D97DA87DA20E030E0C9011F9138
:100D30000F91FF9008957FDA21E030E0C9011F9103
:100D40000F91FF9008951F93162F880FDFD98130E0
:100D500051F086E67FDA812F7DDA6DDA20E030E02F
:100D6000C9011F91089567DA21E030E0C9011F91A0
:100D70000895FF920F931F93162F042FF22E880FC2
:100D8000C5D9813081F080E765DA812F63DA802F61
:100D900061DA8F2D5FDA4FDA20E030E0C9011F9170
:100DA0000F91FF90089547DA21E030E0C9011F91CB
:100DB0000F91FF9008950F931F93809161018823F5
:100DC00051F080910501909106012091630130E07E
:100DD0008217930718F41F910F910895109206013E
:100DE00010920501009162011091680180E08ED996
:100DF000813041F080E72EDA802F2CDA80E02ADA89
:100E0000812F28DA18DA85B190E1892785B9809198
:100E1000680190916901019690936901809368013E
:100E20002091640130E082179307A9F610926901BE
:100E300010926801D0CF1F920F920FB60F9211241B
:100E40008F939F9380910301909104010196909359
:100E50000401809303018091030190910401863085
:100E6000910569F41092040110920301809105012B
:100E700090910601019690930601809305019F9140
:100E80008F910F900FBE0F901F9018951F932EE01B
:100E900088E190E00FB6F894A895809360000FBEAB
:100EA0002093600084B1806384B988B1806388B97D
:100EB0002C9816D92D9A84E020E195B1922795B906
:100EC000A895AFE2B5E71197F1F700C00000EFE297
:100ED000F5E73197F1F700C00000815071F781E626
:100EE00091E061E070E047E050E065D080E00ED92D
:100EF000813011F08FE6AED99ED980E007D98130DC
:100F000041F08EE6A7D980E0A5D980E0A3D980E0A2
:100F1000A1D991D9109166011123D1F561DB539AC2
:100F20002C9A8FEB94EDA1E081509040A040E1F726
:100F300000C000002C988FEB94EDA1E08150904010
:100F4000A040E1F700C000002C9A8FEB94EDA1E0E7
:100F500081509040A040E1F700C000002C988FEB3A
:100F600094EDA1E081509040A040E1F700C0000066
:100F7000539880918100816080938100B09A809124
:100F80006F00816080936F007894A895D2D9FDCFCF
:100F900080E0BCD8813021F086E65CD9812F5AD917
:100FA0004AD9BCCFFB01DC0102C001900D92415037
:100FB0005040D8F70895DC01CB01FC01F999FECF30
:100FC00006C0F2BDE1BDF89A319600B40D924150D1
:100FD0005040B8F70895DC01CB0102C02D9105D037
:100FE00041505040D8F70895262FF999FECF1FBAE7
:100FF00092BD81BD20BD0FB6F894FA9AF99A0FBE42
:0810000001960895F894FFCF5A
:021008005AFF8D
:00000001FF
