:1000000053C0FFC26CC06BC06AC069C068C067C023
:1000100066C065C064C063C062C061C060C05FC0CC
:100020005EC05DC05CC05BC05AC059C058C057C0FC
:1000300056C055C0040309040E035400680069004B
:100040006E0067004D000C034C0069006E006B00F1
:100050004D001201100100000008A0201041000115
:10006000010200010902220001010080FA090400D6
:100070000001030000000921010100012221000705
:1000800005810308000A0600FF0901A101150026E9
:10009000FF007508850195080900B20201850295E7
:1000A000830900B20201C00011241FBECFEFD4E0CB
:1000B000DEBFCDBF11E0A0E0B1E0E0E1FCE002C0B6
:1000C00005900D92A230B107D9F711E0A2E0B1E09E
:1000D00001C01D92AF34B107E1F72AD597C590CF83
:1000E0001092B90087E08093B800089586E690E00A
:1000F00005C024E02A95F1F7019731F02091BC006A
:1001000027FFF7CF80E0089581E0089594EA909367
:10011000BC0026E630E006C094E09A95F1F7215045
:10012000304059F09091BC0097FFF6CF9091B90004
:10013000987F983021F0903111F081E008958093FC
:10014000BB0084E88093BC0086E690E005C024E014
:100150002A95F1F7019779F02091BC0027FFF7CF9E
:100160009091B900987F983121F081E0903409F0A6
:10017000089580E0089581E0089524EA34E844E990
:100180002093BC009091BC0097FFFCCF9091B900E8
:10019000987F983011F0903199F78093BB0030939D
:1001A000BC009091BC0097FFFCCF9091B900987F64
:1001B000903219F0983509F008954093BC00909161
:1001C000BC0094FDFCCFDCCF24EA34E844E9209362
:1001D000BC009091BC0097FFFCCF9091B900987F34
:1001E000983011F0903199F78093BB003093BC00A8
:1001F0009091BC0097FFFCCF9091B900987F90320E
:1002000021F0983511F080E008954093BC00909162
:10021000BC0094FDFCCFDBCF84E98093BC0086E674
:1002200005C094E09A95F1F7815021F09091BC00BF
:1002300094FDF7CF089526E630E006C094E09A9545
:10024000F1F72150304059F09091BC0097FFF6CF64
:100250008093BB0084E88093BC0080E0089581E037
:10026000089584EC8093BC0086E690E005C024E00D
:100270002A95F1F7019749F02091BC0027FFF7CFAD
:100280002091BB0030E0C90108952FEF3FEFC90175
:10029000089584E88093BC0086E690E005C024E0E1
:1002A0002A95F1F7019749F02091BC0027FFF7CF7D
:1002B0002091BB0030E0C90108952FEF3FEFC90145
:1002C00008951F93162F2091240124FF19C0209117
:1002D000250138E8232720932501212FA82FB92FA6
:1002E000E6E2F1E08D91819321501216DCF386E273
:1002F00091E0612F82D11C5F109324011F9108951A
:100300002AE520932401E9CF1F93CF93DF936091D7
:100310003501635067FD13C080913201CCE0D0E01D
:10032000C81BD109C75CDE4F809131018D3209F4C1
:1003300062C08091020187FD86C0109235018091D4
:10034000000184FF4AC0609101016F3F09F445C07C
:10035000693070F16850609301018091190198E84B
:1003600089278093190168E08091020187FD91C07F
:10037000409133015091340186FF70C0862F815027
:10038000C82FD0E09E01255E3E4FFA01AAE1B1E000
:1003900084918D933196A217B307D1F72196C40F9C
:1003A000D51FD0933401C0933301162F1C5F0BC0AF
:1003B000109201018091190198E889278093190111
:1003C000662391F614E08AE191E017D11C3019F010
:1003D0008FEF809301011093000194E189B18C703B
:1003E00031F49150D9F71092360110923001DF911B
:1003F000CF911F910895683009F09FCF83EC8093CF
:1004000019018AE5809300011092020188818076AB
:10041000A9F59A81109222018981882309F045C0AB
:100420001092230122E231E082E0309334012093E4
:1004300033019F81992321F49E81981708F4892F15
:10044000809301017ACFCE01F8D28F3F09F43FC0EB
:10045000882309F472CF109201016FCFDA01862F41
:100460008150C82FD0E09E01255E3E4FEAE1F1E0C9
:100470008D918193E217F307D9F790CFCE0134D352
:100480008F3FB9F6988197FD3DC090E890930201A7
:10049000D7CF8AE191E00AD3682F893008F480C071
:1004A0008FEF809301011EE196CF8530A1F0863059
:1004B000C1F0883049F1893059F18A3009F44FC0D0
:1004C0008B3009F445C022E231E080E0AECF8EE10E
:1004D0008093000132CF9093360122E231E080E038
:1004E000A4CF8B81813061F1823011F18330B1F082
:1004F0008132C9F1823209F44BC080E090E49093DC
:10050000020197CF8E81C1CF28E331E081E08DCF0A
:100510009093380122E231E080E087CF992359F5AA
:1005200084E390E0909334018093330184E0E6CF3C
:1005300084E690E0909334018093330182E2DECF31
:1005400082E590E0909334018093330182E1D6CF2D
:100550008BE48093250122E231E080E066CF22E245
:1005600031E081E062CF86E790E0909334018093A0
:10057000330189E0C3CF9130B1F0923009F0BDCFA3
:1005800086E490E090933401809333018CE0B6CF01
:1005900086E890E0909334018093330181E2AECFFE
:1005A000182F1C5F10CF88E390E090933401809364
:1005B00033018EE0A3CFE9E6F0E0808182608083A2
:1005C000E89A8BE4809325018AE5809324010895BD
:1005D000A82FB92F80E090E041E050EA60956F5F6E
:1005E00058F42D9138EF82279795879510F084273E
:1005F00095273F5FC8F3F3CF0895EADF8D939D936E
:100600000895CF93CFB7CF93C3954B9BE9F74B9BFF
:1006100009C04B9B07C04B9B05C04B9B03C04B9B2A
:1006200001C0A3C0DF93C0913201DD27C75CDE4F5C
:100630004B9B02C0DF91EBCF2F930F931F9309B118
:100640002FEF03FB20F94F933F9319B14FEF012791
:1006500003FB21F93BE031C04E7F012F19B121602E
:1006600028C0102F4D7F2260000009B129C04B7FA8
:100670002460012F000019B12BC019B1477F2860F9
:100680002AC04F7E09B120612CC04F7D19B1206274
:100690002FC04F7B09B1206432C0422709B1499372
:1006A0004FEF0000102713FB20F919B11C70C9F19E
:1006B000297F91F2012703FB21F909B1237F89F2F8
:1006C000315058F1102713FB22F919B1277E79F226
:1006D000012703FB23F92F7C81F209B1102713FBBB
:1006E00024F92F7971F200C019B1012703FB25F914
:1006F0002F7359F200C009B1102713FB26F92230DD
:1007000040F200C019B1012703FB27F9243028F675
:100710004F77206819B10000F9CF11E01CBB00270A
:1007200019C03B503195C31BD04011E01CBB088160
:10073000033CF9F00B34E9F0209130011981110FDD
:100740001213EDCF4A81441F093641F10D3211F0E9
:10075000013E29F7009337013F914F911F910F916F
:100760002F91DF91CCB3C0FD4FCFCF91CFBFCF91B1
:10077000189520913701222379F310913501112327
:1007800069F534306AF130933501209331011091CD
:1007900032013BE0311B3093320122C00091350120
:1007A0000130E4F40AE54F7049F43091000134FD62
:1007B00019C000930001C9E1D1E018C030912401B3
:1007C00034FD10C000932401C5E2D1E00FC027958D
:1007D000A8F45150A9F4220F0000F9CF4AE503C054
:1007E00042ED01C0432FC4E1D0E032E01AB11C60F9
:1007F0005B9A1AB90BB120E41CE05F93012756E025
:100800000BB9279520F4515021F4220FF9CF01277D
:1008100056E000003B5A0BB9D0F2279528F451500E
:1008200029F4220F0000F9CF012756E027950BB9D4
:1008300020F4515021F4220FF9CF012756E02991DD
:1008400033230BB921F6037F10913601110FC651E6
:10085000D0400BB911F01093300111E01CBB0860BF
:100860001AB1137F402F437F5F9100C000C00BB9C6
:100870001AB94BB971CF85B190E1892785B908952F
:10088000009711F42C9808952C9A089581E01C9BF0
:1008900080E00895009711F42D9808952D9A0895F9
:1008A000DF92EF92FF920F931F93CF93DF9380918C
:1008B00005018093080110920901809111018A3D80
:1008C00059F085E680930901DF91CF911F910F9137
:1008D000FF90EF90DF900895809112010091130135
:1008E000D0901401813009F448C08430B9F08530CB
:1008F00009F47EC0863009F490C0843609F482C0C1
:100900008B3611F785B190E1892785B980E090E0B9
:1009100065E56ED181E080931801D6CFF090150186
:1009200000911601F7FC25C007FD23C00F1508F143
:1009300010E00F191109101611060CF07CC0EE24FE
:10094000C0E0D0E0DE2CDF0C8D2D880FDFDB8823AC
:1009500029F4FE01E85FFE4FD38221965DDCE3942B
:100960008E2D90E0801791076CF38C2F80930A01F5
:10097000ABCF86E680930901A7CFF0901501F7FC75
:10098000F8CF8F2D880FC2DB813009F44FC010E003
:100990000B5E1E4F21E00631120739F0C6E1D1E0AF
:1009A000899149DC0C171D07D9F7DD2049F18F2DFE
:1009B000880F816009DC813061F1ED2CFF240894FF
:1009C000E108F1080AE011E0C0E0D0E00CC049DC29
:1009D0003FEF8F3F9307E9F0F80181938F01219654
:1009E000CD1508F071CFCE15DF0589F752DCF0CFB9
:1009F00080911501882311F02D9A66CF2D9864CF30
:100A00000BDC62CF83E180930A0186E380930B01C4
:100A10005BCF88E68093090157CFFEDB87EB9BE035
:100A20000197F1F700C000005BDB4ECF87E68093B3
:100A30000901F2DB49CF80E099CFFF920F931F931A
:100A4000482F792F10910601112321F1062F161737
:100A5000F8F0F09007012F2D30E0205F3E4FC901E4
:100A6000642F402F50E0BBD0F00EF0920701101B16
:100A700010930601112399F081E0112321F41F91B5
:100A80000F91FF90089580E01F910F91FF900895BE
:100A9000012FDFCF81E01F910F91FF90089500DFBC
:100AA0001091060181E0112351F3EDCFFF920F93D6
:100AB0001F9300910601162F061708F4102FF090CF
:100AC00007012F2D30E0285F3E4FB901412F50E044
:100AD00086D0F10EF0920701011B00930601812FD1
:100AE0001F910F91FF900895FC01808180768032E4
:100AF00011F080E0089592818181813041F0893048
:100B0000C1F7892F8150823030F080E00895892F1D
:100B10008150823070F790930501913039F083E86D
:100B200080930601109207018FEF089588E0F8CFB7
:100B30002EE088E190E00FB6F894A89580936000CD
:100B40000FBE2093600084B1806384B988B1806354
:100B500088B92C98C5DA2D9A84E020E195B19227C6
:100B600095B9A895AFE2B5E71197F1F700C000007D
:100B7000EFE2F5E73197F1F700C00000815071F71F
:100B80001ADD539A2C9A8FEB94EDA1E0815090409E
:100B9000A040E1F700C000002C988FEB94EDA1E09D
:100BA00081509040A040E1F700C000002C9A8FEBEC
:100BB00094EDA1E081509040A040E1F700C000001A
:100BC0002C988FEB94EDA1E081509040A040E1F78C
:100BD00000C0000053987894A89596DBFDCFFB01E8
:100BE000DC0102C001900D9241505040D8F70895A9
:100BF000262FF999FECF1FBA92BD81BD20BD0FB639
:100C0000F894FA9AF99A0FBE01960895F894FFCFD6
:020C10005AFF89
:00000001FF
